:020000040800F2
:100000000000022085A8000881A600088FA600082D
:1000100095A600089BA60008A1A600080000000005
:10002000000000000000000000000000A7A600087B
:10003000B5A6000800000000C3A60008D1A600086D
:10004000D5A80008D5A80008D5A80008D5A800089C
:10005000D5A80008D5A80008D5A80008D5A800088C
:10006000D5A80008D5A80008D5A80008D5A800087C
:10007000D5A80008D5A80008D5A80008D5A800086C
:10008000D5A80008D5A80008DDA60008D5A8000856
:10009000D5A80008D5A80008D5A80008D5A800084C
:1000A000F1A6000805A7000819A700082DA7000859
:1000B000D5A8000841A70008D5A80008D5A80008C1
:1000C000D5A80008D5A80008D5A80008D5A800081C
:1000D000D5A80008D5A80008D5A8000855A700088D
:1000E000D5A80008D5A800080000000069A70008EE
:1000F0007DA7000899A70008ADA70008D5A80008AB
:10010000D5A80008D5A80008D5A80008D5A80008DB
:10011000D5A80008D5A80008C1A70008D5A80008E0
:10012000D5A80008D5A80008D5A80008D5A80008BB
:10013000D5A80008D5A80008D5A80008D5A80008AB
:1001400000000000000000000000000000000000AF
:10015000D5A80008D5A80008D5A80008D5A800088B
:10016000D5A80008D5A80008D5A80008D5A800087B
:10017000D5A80008D5A80008D5A8000800000000F0
:10018000D5A80008D5A80008D5A80008D5A800085B
:10019000D5A80008D5A80008D5A80008D5A800084B
:1001A000D5A80008D5A80008D5A80008D5A800083B
:1001B000D5A80008D5A80008D5A80008D5A800082B
:1001C000D5A80008D5A80008D5A80008D5A800081B
:1001D000D5A80008D5A80008D5A80008D5A800080B
:1001E000D5A80008D5A80008D5A80008D5A80008FB
:1001F000D5A80008D5A80008D5A80008D5A80008EB
:10020000D5A80008D5A80008D5A80008D5A80008DA
:10021000D5A80008D5A80008D5A80008D5A80008CA
:10022000D5A80008D5A80008D5A80008000000003F
:10023000D5A80008D5A8000800000000D5A800082F
:10024000D5A80008D5A80008D5A80008D5A800089A
:10025000D5A80008D5A80008D5A80008D5A800088A
:10026000D5A80008D5A80008D5A80008D5A800087A
:10027000D5A80008D5A80008D5A8000800000000EF
:10028000D5A8000800000000D5A800080000000064
:0802900000000000D5A80008E1
:1002A00010B5054C237833B9044B13B10448AFF3B0
:1002B00000800123237010BD100200200000000008
:1002C00078E0000808B5034B1BB103490348AFF3BE
:1002D000008008BD000000001402002078E0000843
:1002E000034613F8012B002AFBD1181A0138704776
:1002F00001F0FF01102A2BDB10F0070F08D010F8D7
:10030000013B013A8B422DD010F0070F42B3F6D1DA
:10031000F0B441EA012141EA014122F007047FF0F3
:1003200000070023F0E80256083C85EA010586EA4A
:10033000010685FA47F5A3FA87F586FA47F6A5FA86
:1003400087F68EB9EED1F0BC01F0FF0102F0070292
:1003500032B110F8013B013A83EA010313B1F8D13D
:100360000020704701387047002D06BF354603381E
:10037000073815F0010F07D1013015F4807F02BF57
:10038000013015F4C03F0130F0BC0138704700BFA8
:1003900053B94AB9002908BF00281CBF4FF0FF31EC
:1003A0004FF0FF3000F07AB9ADF1080C6DE904CEE2
:1003B00000F006F8DDF804E0DDE9022304B0704740
:1003C0002DE9F0478C460D460446089E002B51D17E
:1003D0008A4217466DD9B2FA82FEBEF1000F0BD0E9
:1003E000CEF1200C01FA0EF520FA0CFC02FA0EF701
:1003F0004CEA050C00FA0EF44FEA174A250CBCFB38
:10040000FAF81FFA87F90AFB18CC45EA0C4508FBF5
:1004100009F3AB420AD9ED1908F1FF3280F02381CC
:10042000AB4240F22081A8F102083D44ED1AA4B28B
:10043000B5FBFAF00AFB105544EA054400FB09F944
:10044000A14509D9E41900F1FF3380F00A81A145E3
:1004500040F2078102383C44A4EB090440EA08401A
:100460000021002E61D024FA0EF400233460736062
:10047000BDE8F0878B4207D9002E54D0002186E8D2
:1004800021000846BDE8F087B3FA83F1002940F067
:100490008E80AB4202D3824200F2FA80841A65EB6E
:1004A00003050120AC46002E3FD086E81010BDE8C1
:1004B000F08712B90127B7FBF2F7B7FA87FEBEF152
:1004C000000F34D1EB1B3A0C1FFA87FC0121B3FB60
:1004D000F2F8250C02FB183345EA03450CFB08F340
:1004E000AB4207D9ED1908F1FF3002D2AB4200F25E
:1004F000D1808046ED1AA3B2B5FBF2F002FB105595
:1005000043EA05440CFB00FCA44507D9E41900F1BB
:10051000FF3302D2A44500F2B8801846A4EB0C04C5
:1005200040EA08409DE731463046BDE8F087CEF10D
:10053000200405FA0EF307FA0EF720FA04F83A0C35
:1005400025FA04F448EA0308B4FBF2F14FEA18452F
:1005500002FB11441FFA87FC45EA044501FB0CF33A
:10056000AB4200FA0EF409D9ED1901F1FF3080F029
:100570008A80AB4240F2878002393D44EB1A1FFA71
:1005800088F5B3FBF2F002FB103345EA034500FBAC
:100590000CF3AB4207D9ED1900F1FF386FD2AB4233
:1005A0006DD902383D44EB1A40EA01418FE7C1F1B1
:1005B000200722FA07F88B4005FA01F448EA030302
:1005C00020FA07FE4FEA134CFD404EEA040EB5FB3D
:1005D000FCF94FEA1E440CFB19551FFA83F844EA54
:1005E000054509FB08F4AC4202FA01F200FA01FAEF
:1005F00008D9ED1809F1FF3043D2AC4241D9A9F135
:1006000002091D442D1B1FFA8EFEB5FBFCF00CFBEE
:1006100010554EEA054400FB08F8A04507D9E41838
:1006200000F1FF3529D2A04527D902381C4440EA01
:100630000940A4EB0804A0FB02894C45C6464D4680
:1006400015D312D056B1BAEB0E0364EB050404FACD
:1006500007F7CB401F43CC40376074600021BDE8F2
:10066000F0871846F8E69046E0E6C245EAD2B8EBD5
:10067000020E69EB03050138E4E72846D7E7404658
:1006800091E78146BEE7014678E702383C4445E7FA
:10069000084608E7A8F102083D442BE7704700BF71
:1006A00080B500AF032001F07FFD002000F00AF8C4
:1006B0000346002B01D0012302E009F07DFC00235A
:1006C000184680BD80B582B000AF7860124B1A68C2
:1006D000124B1B7819464FF47A73B3FBF1F3B2FB5C
:1006E000F3F3184601F093FD0346002B01D00123DC
:1006F0000EE07B680F2B0AD8002279684FF0FF309C
:1007000001F05DFD064A7B681360002300E00123D1
:1007100018460837BD4680BD340000200400002084
:100720000000002080B400AF064B1B781A46064B31
:100730001B681344044A136000BFBD465DF8047B88
:10074000704700BF040000202C02002080B400AFDE
:10075000034B1B681846BD465DF8047B704700BF1D
:100760002C02002080B584B000AF7860FFF7EEFF68
:10077000B8607B68FB60FB68B3F1FF3F05D0094BB5
:100780001B781A46FB681344FB6000BFFFF7DEFFCF
:100790000246BB68D21AFB689A42F7D300BF1037F3
:1007A000BD4680BD0400002080B58EB000AF7860EB
:1007B000002387F837300023FB620023BB607B688F
:1007C000002B01D101230EE27B68DB68002B7B68E4
:1007D0005B6D002B09D1786809F008FC7B6800226A
:1007E0009A657B68002283F850207B681B689B68B1
:1007F00003F00053002B07D07B681B687A681268EF
:10080000926822F000529A607B681B689B6803F034
:100810008053002B19D17B681B687A681268926834
:1008200042F080529A60674B1B68674AA2FB032321
:10083000DA0C13469B0013445B00BB6002E0BB680C
:10084000013BBB60BB68002BF9D17B681B689B68D0
:1008500003F08053002B0ED17B685B6D43F01002D8
:100860007B685A657B689B6D43F001027B689A65E3
:10087000012387F837307B685B6D03F01003002B92
:1008800040F0A6817B681B689B6803F00403002B83
:1008900040F09E817B685B6D43F002027B685A6585
:1008A0007B681B68494A934204D07B681B68484AAE
:1008B000934202D1474B3B6301E0474B3B637B686C
:1008C0001B689B6803F00303012B08D17B681B683E
:1008D0001B6803F00103012B01D1012300E0002379
:1008E000002B40F08E807B681B68384A934220D1F1
:1008F000374B9B6803F00303012B05D1344B1B6876
:1009000003F00103012B0BD0344B9B6803F003036E
:10091000012B07D1314B1B6803F00103012B01D1DF
:10092000012300E00023002B0CBF01230023DBB2D6
:100930005CE07B681B68264A934220D1234B9B686E
:1009400003F00303012B05D1204B1B6803F00103C7
:10095000012B0BD0214B9B6803F00303012B07D124
:100960001E4B1B6803F00103012B01D1012300E0A2
:10097000002303F00103DBB2002B20D113E0134B63
:100980009B6803F00303012B07D1104B1B6803F096
:100990000103012B01D1012300E0002303F0010337
:1009A000DBB2002B0BD10A4B9B6803F00303012B36
:1009B00016D1074B1B6803F00103012B10D1012353
:1009C0000FE000BF3400002083DE1B430020024004
:1009D00000210240002302400063025800600258D8
:1009E0000023002B0CBF01230023DBB2002B08D017
:1009F0003B6B9B6823F47C127B685B681A433B6B00
:100A00009A607B685B7D1A464FF400533B623B6AF9
:100A100093FAA3F3FB61FB69B3FA83F302FA03F3DE
:100A20001A467B681B6B1A437B689B6813437A6882
:100A3000127F11464FF48032BA62BA6A92FAA2F279
:100A40007A627A6AB2FA82F201FA02F21343FB6224
:100A50007B681B7F012B11D17B681B6A5A1E4FF4E8
:100A60006023BB61BB6993FAA3F37B617B69B3FA33
:100A700083F302FA03F3FA6A1343FB627B685B6A4F
:100A8000012B0BD07B689B6A002B07D07B685A6ACE
:100A90007B689B6A1343FA6A1343FB627B681A689C
:100AA0007B681B68D968524B0B40F96A0B43D360D3
:100AB0007B681B689B6803F00C03002B66D17B6886
:100AC0001B7D1A464FF480433B613B6993FAA3F3C5
:100AD000FB60FB68B3FA83F302FA03F31A467B6800
:100AE000DB6A1343FB627B681A687B681B68D96802
:100AF000404B0B40F96A0B43D3607B6893F8393065
:100B0000012B1AD17B685B6A012B7B681A687B68B2
:100B10001B681969384B0B407968C96B0804796800
:100B2000096C08437968496C08437968896C01430A
:100B30000B4343F00103136107E07B681B687A688D
:100B40001268126922F001021A617B681B687A68D8
:100B50001268126922F070417A68526B0A431A6176
:100B60007B6893F83830012B08D17B681B687A6862
:100B70001268926842F480729A6007E07B681B6892
:100B80007A681268926822F480729A607B68DB68E7
:100B9000012B0CD17B681B687A681268126B22F0FB
:100BA0000F017A689269013A0A431A6307E07B6889
:100BB0001B687A681268126B22F00F021A637B6856
:100BC0005B6D23F0030343F001027B685A6508E084
:100BD0007B685B6D43F010027B685A65012387F8E0
:100BE000373097F8373018463837BD4680BD00BFDC
:100BF00003C0F0FFFCBFFFFF1EF800FC80B584B00F
:100C000000AF78600023FB737B681B689B6803F070
:100C10000403002B40F021817B6893F85030012BB6
:100C200001D102231CE17B68012283F850207868FF
:100C300001F08AF80346FB73FB7B002B40F0088130
:100C40007B685B6D03F48053002B06D07B689B6D43
:100C500023F006027B689A6502E07B6800229A65B1
:100C60007B685A6D804B134043F480727B685A65F1
:100C70007B681B687D4A93420AD07B681B687C4A6C
:100C8000934205D07B4B9B6803F01F03002B05D1DB
:100C90007B685B6D23F480127B685A657B681B68F8
:100CA0001C221A607B681B687A681268526822F0FE
:100CB0001C025A607B681B69082B08D17B681B6883
:100CC0007A681268526842F008025A6008E07B684D
:100CD0001B687A681268526842F004025A6000BFCA
:100CE0007B681B6B002B07D17B681B687A681268D6
:100CF000526842F010025A607B681B685B4A93425C
:100D000016D07B681B685C4A934211D0594B9B6894
:100D100003F01F03002B0BD0564B9B6803F01F03FF
:100D2000052B05D0534B9B6803F01F03092B41D1C2
:100D30007B681B68DB6803F00073002B2DD07B6899
:100D40005B6D23F4405343F480527B685A657B68A3
:100D50001B69082B10D17B681B687A68126852687F
:100D600022F020025A607B681B687A681268526819
:100D700042F040025A6010E07B681B687A68126893
:100D8000526822F040025A607B681B687A681268D9
:100D9000526842F020025A6000BF7B68002283F84C
:100DA00050207B681B687A681268926842F00402DF
:100DB0009A6054E07B685B6D43F480127B685A65EF
:100DC0007B681B68294A934204D07B681B682A4AC7
:100DD000934202D17B681B6800E0244BBB60BB6878
:100DE000DB6803F00073002B2DD07B685B6D23F470
:100DF000405343F480527B685A657B681B69082B1B
:100E000010D17B681B687A681268526822F0200251
:100E10005A607B681B687A681268526842F0400228
:100E20005A6010E07B681B687A681268526822F08A
:100E300040025A607B681B687A681268526842F008
:100E400020025A6000BF7B68002283F8502006E031
:100E50007B68002283F8502001E00223FB73FB7BB8
:100E600018461037BD4680BDFEF0FFFF002002404F
:100E700000210240002302400060025880B483B089
:100E800000AF78607B681B681B6C18460C37BD464A
:100E90005DF8047B7047000080B58AB000AF7860D1
:100EA00000237B627B681B681B687B617B681B6817
:100EB0005B683B610023FB610023BB617B6903F03E
:100EC0000203002B17D03B6903F00203002B12D062
:100ED0007B685B6D03F01003002B05D17B685B6DB5
:100EE00043F400627B685A65786800F0BBFF7B685A
:100EF0001B6802221A607B6903F00403002B04D0F4
:100F00003B6903F00403002B0BD17B6903F008035A
:100F1000002B00F08D803B6903F00803002B00F0EC
:100F200087807B685B6D03F01003002B05D17B6825
:100F30005B6D43F400727B685A657B681B68DB68F5
:100F400003F44063002B6CD17B681B687E4A93429C
:100F500016D07B681B687D4A934211D07C4B9B68FE
:100F600003F01F03002B0BD0794B9B6803F01F038A
:100F7000052B05D0764B9B6803F01F03092B04D18A
:100F80007B681B68DB68FB6111E07B681B686E4A4D
:100F9000934204D07B681B686C4A934202D17B6801
:100FA0001B6800E0684BFB60FB68DB68FB61FB696A
:100FB00003F40053002B34D17B681B681B6803F0DB
:100FC0000803082B2DD17B681B689B6803F0040382
:100FD000002B1AD17B681B687A681268526822F06D
:100FE0000C025A607B685B6D23F480727B685A65E3
:100FF0007B685B6D03F48053002B12D17B685B6DC3
:1010000043F001027B685A650BE07B685B6D43F03F
:1010100010027B685A657B689B6D43F001027B6818
:101020009A65786807F02AFB7B681B680C221A60B7
:101030007B6903F02003002B04D03B6903F02003FD
:10104000002B0BD17B6903F04003002B00F0D5800F
:101050003B6903F04003002B00F0CF807B685B6DA1
:1010600003F01003002B05D17B685B6D43F4005245
:101070007B685A657B681B681B6803F04003402B44
:1010800040F0B4807B681B682F4A934216D07B687F
:101090001B682E4A934211D02D4B9B6803F01F030F
:1010A000002B0BD02A4B9B6803F01F03062B05D0A7
:1010B000274B9B6803F01F03072B04D17B681B6839
:1010C000DB68BB6111E07B681B681F4A934204D058
:1010D0007B681B681D4A934202D17B681B6800E055
:1010E000194BFB60FB68DB68BB617B681B68164AB9
:1010F000934216D07B681B68144A934211D0144B5C
:101100009B6803F01F03002B0BD0114B9B6803F06F
:101110001F03052B05D00E4B9B6803F01F03092B03
:1011200004D17B681B68DB68FB6118E07B681B6887
:10113000054A934204D07B681B68044A934209D154
:101140007B681B6807E000BF002002400060025877
:1011500000230240844BFB60FB68DB68FB617B681B
:101160001B68DB6C03F4C073002B3FD1BB6903F435
:101170000013002B3AD1FA697C4B13407B4A93420F
:1011800006D17B681B68DB6803F44063002B2DD01D
:101190007B681B689B6803F00803002B1AD17B68EF
:1011A0001B687A681268526822F060025A607B6895
:1011B0005B6D23F480527B685A657B685B6D03F43A
:1011C0008073002B12D17B685B6D43F001027B685A
:1011D0005A650BE07B685B6D43F010027B685A65D3
:1011E0007B689B6D43F001027B689A65786800F02C
:1011F00011FE7B681B6860221A607B6903F0800324
:10120000002B11D03B6903F08003002B0CD07B68CE
:101210005B6D43F480327B685A65786800F0AEF805
:101220007B681B6880221A607B6903F48073002B43
:1012300012D03B6903F48073002B0DD07B685B6D8B
:1012400043F400327B685A65786800F0F7FD7B68EC
:101250001B684FF480721A607B6903F40073002BE3
:1012600012D03B6903F40073002B0DD07B685B6DDB
:1012700043F480227B685A65786800F0E9FD7B685A
:101280001B684FF400721A607B6903F01003002B97
:1012900048D03B6903F01003002B43D07B681B6BE5
:1012A000002B02D101237B6226E07B681B682E4A5B
:1012B000934204D07B681B682D4A934202D12D4B88
:1012C0003B6201E02C4B3B623B6A9B6803F01F03CF
:1012D000002B09D17B681B68DB6803F00103002B3E
:1012E0000AD001237B6207E03B6A9B6803F440431A
:1012F000002B01D001237B627B6A012B0ED17B681E
:101300005B6D43F480627B685A657B689B6D43F03C
:1013100002027B689A65786800F03AF87B681B687F
:1013200010221A607B6903F48063002B18D03B699C
:1013300003F48063002B13D07B685B6D43F4804221
:101340007B685A657B689B6D43F008027B689A65F1
:101350007B681B684FF480621A60786800F064FD57
:1013600000BF2837BD4680BD00200240002000029B
:1013700000210240002302400063025880B483B081
:1013800000AF786000BF0C37BD465DF8047B704746
:1013900080B483B000AF786000BF0C37BD465DF805
:1013A000047B704790B4B6B000AF7860396000231A
:1013B00087F8D7300023BB603B68DB68B3F1804F10
:1013C00003D17B681B68A84A93427B6893F850302E
:1013D000012B02D1022300F0A4BC7B68012283F818
:1013E00050207B681B689B6803F00403002B40F0CF
:1013F00087847B681B687A681268D1693A681268CA
:10140000012000FA02F20A43DA613B685B68042BB0
:1014100036D87B681B687A681268116B4FF4F862E3
:10142000C7F8C020D7F8C02092FAA2F2C7F8BC20B3
:10143000D7F8BC20B2FA82F210463A68526802FB32
:1014400000F21F2000FA02F2D24311403A681068FD
:101450004FF4F862C7F8C820D7F8C82092FAA2F271
:10146000C7F8C420D7F8C420B2FA82F214463A680A
:10147000526802FB04F200FA02F20A431A63B1E076
:101480003B685B68092B38D87B681B687A681268F0
:10149000516B4FF4F862C7F8B020D7F8B02092FA39
:1014A000A2F2C7F8AC20D7F8AC20B2FA82F210460C
:1014B0003A685268053A02FB00F21F2000FA02F275
:1014C000D24311403A6810684FF4F862C7F8B82068
:1014D000D7F8B82092FAA2F2C7F8B420D7F8B4200F
:1014E000B2FA82F214463A685268053A02FB04F2F4
:1014F00000FA02F20A435A6374E03B685B680E2B01
:1015000038D87B681B687A681268916B4FF4F86270
:10151000C7F8A020D7F8A02092FAA2F2C7F89C2022
:10152000D7F89C20B2FA82F210463A6852680A3A1A
:1015300002FB00F21F2000FA02F2D24311403A6887
:1015400010684FF4F862C7F8A820D7F8A82092FADC
:10155000A2F2C7F8A420D7F8A420B2FA82F2144667
:101560003A6852680A3A02FB04F200FA02F20A43AD
:101570009A6337E07B681B687A681268D16B4FF416
:10158000F862C7F89020D7F8902092FAA2F2C7F834
:101590008C20D7F88C20B2FA82F210463A68526852
:1015A0000F3A02FB00F21F2000FA02F2D243114070
:1015B0003A6810684FF4F862C7F89820D7F8982076
:1015C00092FAA2F2C7F89420D7F89420B2FA82F2E5
:1015D00014463A6852680F3A02FB04F200FA02F22B
:1015E0000A43DA637B681B689B6803F00C03002BDB
:1015F00040F0E6813B681B68092B37D97B681B6884
:101600007A68126891693822C7F88020D7F880205C
:1016100092FAA2F2FA67FA6FB2FA82F210463A68C8
:1016200012680A3A02FB00F2072000FA02F2D243E3
:1016300011403A6890683822C7F88820D7F8882087
:1016400092FAA2F2C7F88420D7F88420B2FA82F284
:1016500014463A6812680A3A02FB04F200FA02F2EF
:101660000A439A612EE000BF006002587B681B6845
:101670007A681268516938223A673A6F92FAA2F290
:10168000FA66FA6EB2FA82F210463A68126802FB03
:1016900000F2072000FA02F2D24311403A68906843
:1016A0003822BA67BA6F92FAA2F27A677A6FB2FA00
:1016B00082F214463A68126802FB04F200FA02F25F
:1016C0000A435A613B685A697B681B68DB689B0860
:1016D00003F007035B0002FA03F3C7F8CC303B6862
:1016E0001B69013B032B00F2F68001A252F823F0A4
:1016F0000117000875170008EB17000861180008AB
:101700007B681B687A681268126E02F000413A68C2
:1017100010684FF0F842BA66BA6E92FAA2F27A6690
:101720007A6EB2FA82F29040D7F8CC2002430A4394
:101730001A667B681B687A681268126922F4006274
:101740003968097E0A431A613B685B7E002B08D02A
:101750007B681B687A681268126E42F000421A6653
:101760002EE17B681B687A681268126E22F00042D4
:101770001A6625E17B681B687A681268526E02F06F
:1017800000413A6810684FF0F8423A663A6E92FAB1
:10179000A2F2FA65FA6DB2FA82F29040D7F8CC2044
:1017A00002430A435A667B681B687A6812681269AA
:1017B00022F480523968097E49000A431A613B6865
:1017C0005B7E002B08D07B681B687A681268526EBB
:1017D00042F000425A66F3E07B681B687A68126840
:1017E000526E22F000425A66EAE07B681B687A6813
:1017F0001268926E02F000413A6810684FF0F842A9
:10180000BA65BA6D92FAA2F27A657A6DB2FA82F28C
:101810009040D7F8CC2002430A439A667B681B6845
:101820007A681268126922F400523968097E8900C8
:101830000A431A613B685B7E002B08D07B681B68FB
:101840007A681268926E42F000429A66B8E07B684D
:101850001B687A681268926E22F000429A66AFE0C6
:101860007B681B687A681268D26E02F000413A68A1
:1018700010684FF0F8423A653A6D92FAA2F2FA64B3
:10188000FA6CB2FA82F29040D7F8CC2002430A43B5
:10189000DA667B681B687A681268126922F48042F3
:1018A0003968097EC9000A431A613B685B7E002BD8
:1018B00008D07B681B687A681268D26E42F00042DA
:1018C000DA667DE07B681B687A681268D26E22F067
:1018D0000042DA6674E07B681B681B6E03F0F84216
:1018E0003B6819684FF0F843BB64BB6C93FAA3F3F1
:1018F0007B647B6CB3FA83F301FA03F39A4207D15A
:101900007B681B687A681268126E22F000421A66C1
:101910007B681B685B6E03F0F8423B6819684FF008
:10192000F8433B643B6C93FAA3F3FB63FB6BB3FAA2
:1019300083F301FA03F39A4207D17B681B687A6844
:101940001268526E22F000425A667B681B689B6EDA
:1019500003F0F8423B6819684FF0F843BB63BB6B78
:1019600093FAA3F37B637B6BB3FA83F301FA03F37C
:101970009A4207D17B681B687A681268926E22F0DF
:1019800000429A667B681B68DB6E03F0F8423B6896
:1019900019684FF0F8433B633B6B93FAA3F3FB6288
:1019A000FB6AB3FA83F301FA03F39A4207D17B6827
:1019B0001B687A681268D26E22F00042DA6600BFB5
:1019C0007B681B689B6803F00303012B08D17B68CD
:1019D0001B681B6803F00103012B01D1012300E008
:1019E0000023002B40F097813B68DB68B3F1804F08
:1019F0000FD07B681B687A681268D2F8C0103A680A
:101A00001268012000FA02F2D2430A40C3F8C02053
:101A10006EE07B681B687A681268D2F8C0103A687A
:101A20001268012000FA02F20A43C3F8C0203B68A2
:101A30001B68082B2ED97B681B687A68126891692D
:101A400038223A623A6A92FAA2F2FA61FA69B2FA72
:101A500082F210463A681268093A02FB00F2072047
:101A600000FA02F2D24311403A6890683822BA6212
:101A7000BA6A92FAA2F27A627A6AB2FA82F21446E8
:101A80003A681268093A02FB04F200FA02F20A43C9
:101A90009A612DE07B681B687A6812685169382268
:101AA0003A613A6992FAA2F2FA60FA68B2FA82F2FC
:101AB00010463A681268013202FB00F2072000FA71
:101AC00002F2D24311403A6890683822BA61BA698A
:101AD00092FAA2F27A617A69B2FA82F214463A680C
:101AE0001268013202FB04F200FA02F20A435A6160
:101AF0007B681B688D4A934204D07B681B688C4AC4
:101B0000934203D18B4BC7F8D03002E08A4BC7F821
:101B1000D0303B681B68122B06D1D7F8D0309B68B9
:101B200003F40003002B17D03B681B68112B06D170
:101B3000D7F8D0309B6803F08073002B0CD03B6843
:101B40001B68132B40F0E780D7F8D0309B6803F474
:101B50008003002B40F0DF807B681B689B6803F0EC
:101B60000303012B08D17B681B681B6803F001038A
:101B7000012B01D1012300E00023002B40F0B680AF
:101B80007B681B68694A93421DD1694B9B6803F0CF
:101B90000303012B05D1664B1B6803F00103012BE6
:101BA0000BD0664B9B6803F00303012B07D1634BFB
:101BB0001B6803F00103012B01D1012300E0002386
:101BC000002B4BD092E07B681B68594A934220D18E
:101BD000564B9B6803F00303012B05D1534B1B6845
:101BE00003F00103012B0BD0544B9B6803F003035C
:101BF000012B07D1514B1B6803F00103012B01D1CD
:101C0000012300E0002303F00103DBB2002B20D10D
:101C100013E0464B9B6803F00303012B07D1434BB2
:101C20001B6803F00103012B01D1012300E0002315
:101C300003F00103DBB2002B0BD13D4B9B6803F09B
:101C40000303012B07D13A4B1B6803F00103012B5F
:101C500001D1012300E00023002B47D13B681B6822
:101C6000122B1FD17B681B68344A93421AD1D7F8D4
:101C7000D0309B6843F40002D7F8D0309A60304BE4
:101C80001B68304AA2FB0323DA0C13461B019B1A84
:101C9000DB00BB6002E0BB68013BBB60BB68002BA4
:101CA000F9D137E03B681B68112B0DD17B681B68AD
:101CB000224A934208D1D7F8D0309B6843F0807213
:101CC000D7F8D0309A6025E03B681B68132B21D1F0
:101CD0007B681B68194A93421CD1D7F8D0309B68A7
:101CE00043F48002D7F8D0309A6013E07B685B6DD4
:101CF00043F020027B685A65012387F8D7300AE059
:101D00007B685B6D43F020027B685A65012387F88E
:101D1000D73000E000BF7B68002283F8502097F89E
:101D2000D7301846D837BD4690BC704700200240D7
:101D30000021024000230240006302580060025864
:101D40003400002083DE1B4380B584B000AF786090
:101D50000023FB607B681B689B6803F00303012B77
:101D600008D17B681B681B6803F00103012B01D1BC
:101D7000012300E00023002B44D17B681B689A6894
:101D8000234B1340002B0DD07B685B6D43F010029A
:101D90007B685A657B689B6D43F001027B689A659E
:101DA000012330E07B681B687A681268926842F011
:101DB00001029A60FEF7CAFCF8601CE07B681B68B1
:101DC0007A681268926842F001029A60FEF7BEFCDF
:101DD0000246FB68D31A022B0DD97B685B6D43F07A
:101DE00010027B685A657B689B6D43F001027B683B
:101DF0009A65012307E07B681B681B6803F00103F9
:101E0000012BDBD1002318461037BD4680BD00BF33
:101E10003F00008080B483B000AF786000BF0C3713
:101E2000BD465DF8047B704780B483B000AF786036
:101E300000BF0C37BD465DF8047B704780B483B0AB
:101E400000AF786000BF0C37BD465DF8047B70477B
:101E500080B483B000AF786000BF0C37BD465DF83A
:101E6000047B704780B483B000AF786000BF0C374C
:101E7000BD465DF8047B704780B49FB000AF7860CA
:101E80003960002387F877307B6893F85030012B56
:101E900001D10223ABE07B68012283F850207B68EC
:101EA0001B68564A934202D1554BFB6001E0002368
:101EB000FB60FB68002B0BD17B685B6D43F020025D
:101EC0007B685A657B68002283F8502001238EE0EE
:101ED0007B681B689B6803F00403002B76D1FB68CA
:101EE0009B6803F00403002B70D1464B3B673B68B3
:101EF0001B68002B39D03B6F9B6823F440423B6842
:101F00005B681A433B6F9A607B681B689B6803F0B1
:101F10000303012B08D17B681B681B6803F00103D6
:101F2000012B01D1012300E00023002B58D1FB68D5
:101F30009B6803F00303012B07D1FB681B6803F0C8
:101F40000103012B01D1012300E00023002B47D125
:101F50003B6F9A682C4B13403A6811683A68926854
:101F60000A431A433B6F9A603AE03B6F9B6823F445
:101F700040423B6F9A607B681B689B6803F00303D9
:101F8000012B08D17B681B681B6803F00103012B40
:101F900001D1012300E00023002B21D1FB689B68C5
:101FA00003F00303012B07D1FB681B6803F0010357
:101FB000012B01D1012300E00023002B10D13B6F46
:101FC0009A68114B13403A6F936009E07B685B6D30
:101FD00043F020027B685A65012387F8773000E0E0
:101FE00000BF7B68002283F8502097F877301846AE
:101FF0007C37BD465DF8047B704700BF002002407F
:102000000021024000230240E0F0FFFF80B485B0D1
:1020100000AF78607B6803F00703FB600B4BDB6865
:10202000BB60BA684FF6FF031340BB60FB681A023F
:10203000BB681A43064B1343BB60044ABB68D360BA
:1020400000BF1437BD465DF8047B704700ED00E02B
:102050000000FA0580B400AF044BDB681B0A03F0F4
:1020600007031846BD465DF8047B704700ED00E0AD
:1020700080B483B000AF0346FB80B7F90630002B75
:102080000BDB0949B7F906305B09FA8802F01F0239
:10209000012000FA02F241F8232000BF0C37BD46B0
:1020A0005DF8047B704700BF00E100E080B483B0BE
:1020B00000AF03463960FB80B7F90630002B0ADB1E
:1020C0000D49B7F906303A68D2B21201D2B20B44C8
:1020D00083F800230AE00949FB8803F00F03043B5F
:1020E0003A68D2B21201D2B20B441A7600BF0C3752
:1020F000BD465DF8047B704700E100E000ED00E0C4
:1021000080B489B000AFF860B9607A60FB6803F012
:102110000703FB61FB69C3F10703042B28BF0423FA
:10212000BB61FB690433062B02D9FB69033B00E06A
:1021300000237B610122BB6902FA03F35A1EBB68CC
:102140001A407B699A4001217B6901FA03F3591E09
:102150007B680B40134318462437BD465DF8047B6B
:102160007047000080B582B000AF78607B68013BAB
:10217000B3F1807F01D301230FE00A4A7B68013B62
:1021800053600F214FF0FF30FFF790FF054B002207
:102190009A60044B07221A60002318460837BD4690
:1021A00080BD00BF10E000E080B582B000AF786075
:1021B0007868FFF72BFF00BF0837BD4680BD80B5AC
:1021C00086B000AF0346B9607A60FB81FFF742FF3B
:1021D00078617A68B9687869FFF792FF0246B7F9C3
:1021E0000E3011461846FFF761FF00BF1837BD4695
:1021F00080BD80B582B000AF0346FB80B7F90630E2
:102200001846FFF735FF00BF0837BD4680BD80B5D3
:1022100082B000AF78607868FFF7A4FF03461846E5
:102220000837BD4680BD80B582B000AF78607B685E
:10223000002B01D1012314E07B681B79DBB2002B5A
:1022400005D17B6800225A71786807F057FF7B68D8
:1022500002221A717B6800221A617B6801221A71BE
:10226000002318460837BD4680BD80B483B000AF58
:10227000786039607B685B79012B01D102233AE0F9
:102280007B6801225A717B6802221A717B681B6885
:102290007A681268116801203A6800FA02F20A436B
:1022A0001A603B68002B0FD17B681B681B6803F02A
:1022B0003E03022B18D17B681B687A68126852684B
:1022C00042F001025A600FE07B681B681B6803F450
:1022D0007813B3F5003F07D17B681B687A681268F2
:1022E000526842F002025A607B6801221A717B68D0
:1022F00000225A71002318460C37BD465DF8047B56
:10230000704780B582B000AF78607B681B681B683F
:1023100003F40053B3F5005F20D17B681B685B6B4F
:1023200003F40053B3F5005F18D17B6804221A71DF
:102330007B681B6943F001027B681A617B681B683C
:102340004FF400525A637B681B687A6812681268FF
:1023500022F480521A60786800F052F87B681B689B
:102360001B6803F00053B3F1005F20D17B681B684A
:102370005B6B03F00053B3F1005F18D17B6804225C
:102380001A717B681B6943F002027B681A617B68E3
:102390001B684FF000525A637B681B687A681268AA
:1023A000126822F080521A60786800F027F900BFA6
:1023B0000837BD4680BD80B487B000AFF860B96013
:1023C0007A603B6000237B61FB681B687B61BB68B4
:1023D000002B05D17A697B68134408337B6104E0E4
:1023E0007A697B68134414337B617B691A463B68C6
:1023F0001360002318461C37BD465DF8047B704708
:1024000080B483B000AF786000BF0C37BD465DF884
:10241000047B704780B588B000AFF860B9607A601F
:102420000023FB610023BB6100237B61FB685B79B8
:10243000012B01D10223DAE0FB6801225A71FB680B
:1024400002221A71BB681B68042B57D17B68002BD2
:1024500037D1FEF77BF9786111E0FEF777F9024694
:102460007B69D31A012B0AD9FB681B6943F0080268
:10247000FB681A61FB6803221A710323B7E0FB684B
:102480001B685A6B5C4B1340002BE6D10120FEF712
:1024900069F9FB681B68BA6892691A641EE0FEF766
:1024A00055F902467B69D31A012B0AD9FB681B69CF
:1024B00043F00802FB681A61FB6803221A710323C8
:1024C00095E0FB681B685B6B002BE8DB0120FEF7E7
:1024D00049F9FB681B68BA6892695A64FB681B6813
:1024E000BA68D1697A6801FA02F29A64FB681B68DB
:1024F000BA68116A7A6801FA02F2DA64BB681B6989
:10250000012B19D1FB681B689B6BFB611F227B6849
:1025100002FA03F3DB43FA691340FB61BB685B69B2
:10252000BB61BA697B6802FA03F3FA691343FB6182
:10253000FB681B68FA699A63FB681B68DB6BFB61CD
:1025400007227B6802FA03F3DB43FA691340FB615D
:10255000BB681A68BB689B681A43BB68DB68134397
:10256000BB61BA697B6802FA03F3FA691343FB6142
:10257000FB681B68FA69DA63FB681B68FA68126813
:1025800011684FF480407A6800FA02F2D2430A40A0
:102590001A60FB681B681B68FB6140F6FE727B6873
:1025A00002FA03F3DB43FA691340FB61BB685B6823
:1025B000BB61BA697B6802FA03F3FA691343FB61F2
:1025C000FB681B68FA691A60FB681B68FA68126886
:1025D0001168C0207A6800FA02F2D2430A401A60F9
:1025E000FB6801221A71FB6800225A710023184609
:1025F0002037BD4680BD00BF0080002080B483B07E
:1026000000AF786000BF0C37BD465DF8047B7047B3
:1026100080B582B000AF78607B68002B01D10123C8
:1026200098E07B6893F83530DBB2022B04D07B68EE
:1026300080225A6501238DE07B681B681A46474B50
:102640009A4207D97B681B681A46454B9A4201D8C3
:10265000012300E00023002B21D07B68042283F8B3
:1026600035207B681B681A463C4B9A420ED97B6822
:102670001B681A463A4B9A4208D87B681B687A68EE
:102680001268126822F001021A6062E07B681B681F
:102690007A681268126822F001021A6059E07B68B9
:1026A0001B687A681268126822F00E021A607B6852
:1026B0001B681A46294B9A420ED97B681B681A463A
:1026C000274B9A4208D87B681B687A6812681268A0
:1026D00022F001021A6007E07B681B687A681268C2
:1026E000126822F001021A607B681B6E7A68126E13
:1026F000126822F480721A601A4A7B68DB6D01212D
:1027000001FA03F353607B685B6E7A68926E5A60DD
:102710007B68DB6E002B0CD07B68DB6E7A68D26E38
:10272000126822F480721A607B681B6F7A68526F9D
:102730005A607B68002283F834207B68012283F88A
:1027400035207B681B6D002B03D07B681B6D786880
:102750009847002318460837BD4680BD0F00024049
:10276000B80402400054025880B489B000AF7860C9
:1027700039600023FB6100237B6100233B61002360
:10278000BB618B4BFB600023FB6196E10122FB697F
:1027900002FA03F37B613B681A687B6913403B6173
:1027A0003A697B699A4240F085813B685B68022BFD
:1027B00003D03B685B68122B23D1FB69DA087B6886
:1027C000083253F82230BB61FB6903F007039B001A
:1027D0000F2202FA03F3DB43BA691340BB613B6883
:1027E0001A69FB6903F007039B0002FA03F3BA6955
:1027F0001343BB61FB69DA087B680832B96943F8A7
:1028000022107B681B68BB61FB695B00032202FA34
:1028100003F3DB43BA691340BB613B685B6803F0B9
:102820000302FB695B0002FA03F3BA691343BB615D
:102830007B68BA691A603B685B68012B0BD03B6808
:102840005B68022B07D03B685B68112B03D03B68A9
:102850005B68122B30D17B689B68BB61FB695B00B6
:10286000032202FA03F3DB43BA691340BB613B68FE
:10287000DA68FB695B0002FA03F3BA691343BB61D0
:102880007B68BA699A607B685B68BB610122FB69FF
:1028900002FA03F3DB43BA691340BB613B685B6830
:1028A0001B0903F00102FB6902FA03F3BA6913433F
:1028B000BB617B68BA695A607B68DB68BB61FB6996
:1028C0005B00032202FA03F3DB43BA691340BB61E6
:1028D0003B689A68FB695B0002FA03F3BA69134329
:1028E000BB617B68BA69DA603B685B6803F0805360
:1028F000002B00F0DF802F4A2E4BD3F8F43043F04A
:102900000203C2F8F4302B4BD3F8F43003F0020387
:10291000BB60BB68284AFB699B08023352F823302E
:10292000BB61FB6903F003039B000F2202FA03F370
:10293000DB43BA691340BB617B68204A934251D0A4
:102940007B681F4A934231D07B681E4A93422BD04A
:102950007B681D4A934225D07B681C4A93421FD056
:102960007B681B4A934219D07B681A4A934213D062
:102970007B68194A93420DD07B68184A934207D06E
:102980007B68174A934201D109232CE00A232AE0ED
:10299000082328E0072326E0062324E0052322E07D
:1029A000042320E003231EE002231CE001231AE09D
:1029B00080000058004402580004005800000258EB
:1029C0000004025800080258000C02580010025877
:1029D0000014025800180258001C02580020025827
:1029E000002402580023FA6902F003029200934087
:1029F000BA691343BB613649FB699B080233BA6964
:102A000041F82320FB681B68BB613B69DB43BA6963
:102A10001340BB613B685B6803F48033002B03D039
:102A2000BA693B691343BB61FB68BA691A60FB680A
:102A30005B68BB613B69DB43BA691340BB613B68C0
:102A40005B6803F40033002B03D0BA693B6913437E
:102A5000BB61FB68BA695A604FF0B0431B68BB6149
:102A60003B69DB43BA691340BB613B685B6803F4B5
:102A70008013002B03D0BA693B691343BB614FF04D
:102A8000B042BB6913604FF0B0435B68BB613B6908
:102A9000DB43BA691340BB613B685B6803F4001316
:102AA000002B03D0BA693B691343BB614FF0B042BE
:102AB000BB695360FB690133FB61FB690F2B7FF638
:102AC00065AE00BF2437BD465DF8047B704700BF8C
:102AD0000004005880B483B000AF78600B467B8060
:102AE00013467B707B78002B03D07B687A881A832F
:102AF00002E07B687A885A8300BF0C37BD465DF8D8
:102B0000047B7047F0B58FB00AAF78600023FB609C
:102B10007B68002B01D1012305E17B68032283F848
:102B2000B923786807F054FD7B681B68184605F0E8
:102B3000BBFA7B681B683B607E686D4606F110043B
:102B40000FCC0FC50FCC0FC594E8030085E8030038
:102B5000331D0ECB386805F055FA7B681B680021E1
:102B6000184605F0B2FA0023FB604CE07968FA6879
:102B70001346DB009B1A9B000B44393301221A7069
:102B8000FB68D8B27968FA681346DB009B1A9B0091
:102B90000B44383302461A70FB6898B27968FA68B9
:102BA0001346DB009B1A9B000B443E3302461A80FF
:102BB0007968FA681346DB009B1A9B000B443B3391
:102BC00000221A707968FA681346DB009B1A9B0092
:102BD0000B44403300221A607968FA681346DB0020
:102BE0009B1A9B000B44443300221A607968FA68F0
:102BF0001346DB009B1A9B000B444C3300221A60E7
:102C0000FB680133FB60FB680E2BAFD90023FB6030
:102C10005AE07968FA681346DB009B1A9B000B4464
:102C200003F2F91300221A70FB68D8B27968FA68C7
:102C30001346DB009B1A9B000B4403F5FC73024612
:102C40001A70FB6898B27968FA681346DB009B1A21
:102C50009B000B443E3302461A807968FA6813469B
:102C6000DB009B1A9B000B4403F2FB1300221A703B
:102C70007968FA681346DB009B1A9B000B4403F546
:102C8000007300221A607968FA681346DB009B1A09
:102C90009B000B4403F5017300221A607968FA68FF
:102CA0001346DB009B1A9B000B4403F503730022C1
:102CB0001A607B681A68FB6840339B00134400224B
:102CC0005A60FB680133FB60FB680E2BA1D97B685F
:102CD0001B683B607E686D4606F110040FCC0FC583
:102CE0000FCC0FC594E8030085E80300331D0ECB1D
:102CF000386805F011FA7B68012283F8B9237B68F4
:102D00009B6A012B02D1786800F012F87B685B6A3D
:102D1000012B02D1786800F02FF87B681B681846F9
:102D200005F098FB002318461437BD46F0BD00009F
:102D300080B485B000AF78607B681B68FB607B68FF
:102D40000122C3F8F4237B68002283F8EC23FB689C
:102D50009B6943F00062FB689A61FB685A6D054B02
:102D60001343FA685365002318461437BD465DF8CF
:102D7000047B70470300001080B485B000AF78601A
:102D80007B681B68FB607B680122C3F8F823FB6843
:102D90009B6B43F40032FB689A63FB689B6B43F4C4
:102DA0008022FB689A63002318461437BD465DF8FD
:102DB000047B704780B58EB000AF786000237B63E2
:102DC0007B681B6803F00103002B00F08680934BA7
:102DD0001B6903F03803102B0BD0904B1B6903F0D9
:102DE0003803182B11D18D4B9B6A03F00303022B80
:102DF0000BD18A4B1B6803F40033002B6CD07B682B
:102E00005B68002B68D1012364E37B685B68B3F5E2
:102E1000803F06D1814A814B1B6843F480331360A5
:102E20002EE07B685B68002B0CD17C4A7B4B1B68D7
:102E300023F480331360794A784B1B6823F4802392
:102E400013601DE07B685B68B3F5A02F0CD1734A5B
:102E5000724B1B6843F480231360704A6F4B1B68EE
:102E600043F4803313600BE06C4A6C4B1B6823F413
:102E700080331360694A694B1B6823F48023136015
:102E80007B685B68002B13D0FDF760FC786308E07B
:102E9000FDF75CFC02467B6BD31A642B01D903233C
:102EA00018E35E4B1B6803F40033002BF0D014E0F2
:102EB000FDF74CFC786308E0FDF748FC02467B6BAD
:102EC000D31A642B01D9032304E3544B1B6803F486
:102ED0000033002BF0D100E000BF7B681B6803F0DB
:102EE0000203002B00F0A2804C4B1B6903F0380357
:102EF000002B0BD0494B1B6903F03803182B43D12F
:102F0000464B9B6A03F00303002B3DD1434B1B68E8
:102F100003F00403002B05D07B68DB68002B01D194
:102F20000123D7E23D493D4B1B6823F019027B6822
:102F3000DB6813430B60FDF709FC786308E0FDF7DD
:102F400005FC02467B6BD31A022B01D90323C1E295
:102F5000324B1B6803F00403002BF0D02F482F4B9B
:102F60005B6823F47C327B6819694FF47C333B63E4
:102F70003B6B93FAA3F3FB62FB6AB3FA83F301FAA8
:102F800003F31343436051E07B68DB68002B31D0CF
:102F90002249224B1B6823F019027B68DB6813432C
:102FA0000B60FDF7D3FB786308E0FDF7CFFB02462B
:102FB0007B6BD31A022B01D903238BE2174B1B68BF
:102FC00003F00403002BF0D01448144B5B6823F487
:102FD0007C327B6819694FF47C33BB62BB6A93FA1D
:102FE000A3F37B627B6AB3FA83F301FA03F313431F
:102FF00043601BE0094A094B1B6823F0010313607F
:10300000FDF7A4FB78630BE0FDF7A0FB02467B6BAA
:10301000D31A022B04D903235CE200BF00440258F8
:10302000A04B1B6803F00403002BEDD17B681B68E9
:1030300003F01003002B7FD09A4B1B6903F0380379
:10304000082B0BD0974B1B6903F03803182B27D1A3
:10305000944B9B6A03F00303012B21D1914B1B6816
:1030600003F48073002B05D07B68DB69802B01D0D3
:1030700001232FE28B488B4B5B6823F0F8427B687F
:10308000196A4FF0F8433B623B6A93FAA3F3FB6182
:10309000FB69B3FA83F301FA03F3134343604BE094
:1030A0007B68DB69002B2ED07E4A7E4B1B6843F089
:1030B00080031360FDF74AFB786308E0FDF746FBE9
:1030C00002467B6BD31A022B01D9032302E2754B14
:1030D0001B6803F48073002BF0D07248714B5B685F
:1030E00023F0F8427B68196A4FF0F843BB61BB6973
:1030F00093FAA3F37B617B69B3FA83F301FA03F3D9
:103100001343436018E0674A664B1B6823F0800353
:103110001360FDF71BFB786308E0FDF717FB024621
:103120007B6BD31A022B01D90323D3E15D4B1B68C0
:1031300003F48073002BF0D17B681B6803F0080355
:10314000002B36D07B685B69002B19D0554A554B54
:103150005B6F43F001035367FDF7F8FA786308E00B
:10316000FDF7F4FA02467B6BD31A022B01D9032335
:10317000B0E14C4B5B6F03F00203002BF0D018E082
:10318000484A484B5B6F23F001035367FDF7DEFAB3
:10319000786308E0FDF7DAFA02467B6BD31A022B5C
:1031A00001D9032396E13F4B5B6F03F00203002B31
:1031B000F0D17B681B6803F02003002B36D07B68BE
:1031C0009B69002B19D0374A364B1B6843F4805358
:1031D0001360FDF7BBFA786308E0FDF7B7FA024623
:1031E0007B6BD31A022B01D9032373E12D4B1B6890
:1031F00003F40053002BF0D018E02A4A294B1B6837
:1032000023F480531360FDF7A1FA786308E0FDF71B
:103210009DFA02467B6BD31A022B01D9032359E195
:10322000204B1B6803F40053002BF0D17B681B6814
:1032300003F00403002B00F085801B4A1A4B1B6827
:1032400043F480731360FDF781FA786308E0FDF7BB
:103250007DFA02467B6BD31A642B01D9032339E133
:10326000114B1B6803F48073002BF0D07B689B68C4
:10327000012B06D10B4A0B4B1B6F43F00103136765
:1032800031E07B689B68002B10D1064A054B1B6F11
:1032900023F001031367034A024B1B6F23F004035F
:1032A000136720E000440258004802587B689B687E
:1032B000052B0CD1894A894B1B6F43F0040313671C
:1032C000864A864B1B6F43F0010313670BE0834A6A
:1032D000824B1B6F23F001031367804A7F4B1B6FE8
:1032E00023F0040313677B689B68002B15D0FDF760
:1032F0002DFA78630AE0FDF729FA02467B6BD31AB0
:1033000041F28832934201D90323E3E0734B1B6FF0
:1033100003F00203002BEED014E0FDF717FA7863F8
:103320000AE0FDF713FA02467B6BD31A41F28832AA
:10333000934201D90323CDE0684B1B6F03F00203D6
:10334000002BEED17B685B6A002B00F0C280634BE0
:103350001B6903F03803182B00F0B9807B685B6AA7
:10336000022B40F09A805D4A5C4B1B6823F080730F
:103370001360FDF7EBF9786308E0FDF7E7F9024623
:103380007B6BD31A022B01D90323A3E0534B1B6899
:1033900003F00073002BF0D15048504B9A6A504B09
:1033A00013407A68916A7A68D26A12010A43134319
:1033B00083624A497B681B6B013BC3F308027B684D
:1033C0005B6B013B5B029BB21A437B689B6B013BCF
:1033D0001B0403F4FE031A437B68DB6B013B1B06F3
:1033E00003F0FE4313430B633C483C4B5A6B3D4B8D
:1033F00013407A68916C4FF6F8723A613A6992FA22
:10340000A2F2FA60FA68B2FA82F201FA02F2134307
:1034100043633249314BDB6A23F00C027B681B6C3F
:103420001343CB622D492D4BDB6A23F002027B68EC
:103430005B6C1343CB62294A284BDB6A43F480332D
:10344000D362264A254BDB6A43F40033D362234A16
:10345000224BDB6A43F48023D362204A1F4BDB6A92
:1034600043F00103D3621D4A1C4B1B6843F0807379
:103470001360FDF76BF9786308E0FDF767F9024622
:103480007B6BD31A022B01D9032323E0134B1B6858
:1034900003F00073002BF0D01BE0104A0F4B1B68A9
:1034A00023F080731360FDF751F9786308E0FDF7AE
:1034B0004DF902467B6BD31A022B01D9032309E095
:1034C000064B1B6803F00073002BF0D101E00123D1
:1034D00000E0002318463837BD4680BD004402583E
:1034E0000CFCFFFF0700FFFF80B586B000AF7860DF
:1034F000396000237B619D4B1B6803F007023B682A
:103500009A4210D29949994B1B6823F007023B68F5
:1035100013430B60954B1B6803F007023B689A420C
:1035200001D001231DE17B681B6803F00203002B1F
:1035300008D08F498E4B9B6923F00F027B68DB68B4
:1035400013438B617B681B6803F00103002B00F0C1
:1035500097808749864B9B6923F470627B689B68E0
:1035600013438B617B685B68022B07D1804B1B6820
:1035700003F40033002B21D10123F2E07B685B6868
:10358000032B07D17A4B1B6803F00073002B15D176
:103590000123E6E07B685B68012B07D1744B1B6855
:1035A00003F48073002B09D10123DAE0704B1B6810
:1035B00003F00403002B01D10123D2E06C496C4BD2
:1035C0001B6923F007027B685B6813430B61FDF7FF
:1035D000BDF878617B685B68022B12D10AE0FDF7C9
:1035E000B5F802467B69D31A41F28832934201D979
:1035F0000323B6E05E4B1B6903F03803102BEED1BA
:103600003EE07B685B68032B12D10AE0FDF79EF871
:1036100002467B69D31A41F28832934201D90323CF
:103620009FE0534B1B6903F03803182BEED127E0C2
:103630007B685B68012B1DD10AE0FDF787F8024625
:103640007B69D31A41F28832934201D9032388E07F
:10365000474B1B6903F03803082BEED110E0FDF750
:1036600075F802467B69D31A41F28832934201D938
:10367000032376E03E4B1B6903F03803002BEED1A9
:103680003A4B1B6803F007023B689A4210D937494E
:10369000364B1B6823F007023B6813430B60334B28
:1036A0001B6803F007023B689A4201D0012358E0EF
:1036B0007B681B6803F00403002B08D02C492C4BBB
:1036C0009B6923F070027B681B6913438B617B68E5
:1036D0001B6803F00803002B08D02549244BDB6945
:1036E00023F070027B685B691343CB617B681B68C6
:1036F00003F01003002B08D01D491D4BDB6923F498
:10370000E0627B689B691343CB617B681B6803F0B5
:103710002003002B08D01649154B1B6A23F07002BA
:103720007B68DB6913430B6200F028F80146104BFD
:103730009B6903F470624FF480733B613B6993FAB9
:10374000A3F3FB60FB68B3FA83F322FA03F3094A9D
:10375000D35C21FA03F3084A13600020FCF7B2FFA0
:10376000002318461837BD4680BD00BF0020005218
:103770000044025814E100083400002080B489B0ED
:1037800000AF01237B6100233B610123FB60002329
:10379000BB6000237B604FF000033B604FF00003F1
:1037A000FB610023BB61A84B1B6903F03803182B96
:1037B00000F23F8101A252F823F000BF2138000837
:1037C000333A0008333A0008333A0008333A000825
:1037D000333A0008333A0008333A00084738000803
:1037E000333A0008333A0008333A0008333A000805
:1037F000333A0008333A0008333A00084D380008DD
:10380000333A0008333A0008333A0008333A0008E4
:10381000333A0008333A0008333A000853380008B6
:10382000894B1B6803F02003002B09D0864B1B68D3
:10383000DB0803F00303854A22FA03F3BB61FBE0D4
:10384000824BBB61F8E0824BBB61F5E0814BBB6111
:10385000F2E07D4B9B6A03F003033B617A4B9B6A6A
:103860001B0903F03F03FB60774BDB6A03F00103A6
:10387000BB60754B5B6BDB08C3F30C03BA6802FBE0
:1038800003F307EE903AF8EE677AC7ED007A3B69EA
:10389000012B55D0012B02D3022B72D092E06A4B40
:1038A0001B6803F02003002B29D0674B1B68DB0843
:1038B00003F00303654A22FA03F37B607A68FB682E
:1038C000B2FBF3F307EE903AB8EE677A5E4B1B6BF0
:1038D000C3F3080307EE903AF8EE676A97ED006AC3
:1038E000DFED5D5AC6EE257A76EEA77AF7EE006A2E
:1038F00077EEA67A67EE277AC7ED077A83E0534A18
:10390000FB68B2FBF3F307EE903AB8EE677A4E4BE2
:103910001B6BC3F3080307EE903AF8EE676A97ED66
:10392000006ADFED4D5AC6EE257A76EEA77AF7EEFD
:10393000006A77EEA67A67EE277AC7ED077A62E02B
:10394000434AFB68B2FBF3F307EE903AB8EE677AAE
:103950003D4B1B6BC3F3080307EE903AF8EE676A22
:1039600097ED006ADFED3C5AC6EE257A76EEA77A2F
:10397000F7EE006A77EEA67A67EE277AC7ED077A48
:1039800041E0344AFB68B2FBF3F307EE903AB8EE3D
:10399000677A2D4B1B6BC3F3080307EE903AF8EEE2
:1039A000676A97ED006ADFED2C5AC6EE257A76EE4F
:1039B000A77AF7EE006A77EEA67A67EE277AC7ED68
:1039C000077A20E0224AFB68B2FBF3F307EE903A55
:1039D000B8EE677A1C4B1B6BC3F3080307EE903AF3
:1039E000F8EE676A97ED006ADFED1B5AC6EE257A9E
:1039F00076EEA77AF7EE006A77EEA67A67EE277A78
:103A0000C7ED077A00BF104B1B6B5B0A03F07F0307
:103A100001337B617B6907EE903AB8EE677AD7EDA8
:103A2000076AC6EE877AFCEEE77A17EE903ABB613A
:103A300002E0074BBB6100BFBB6918462437BD4697
:103A40005DF8047B704700BF004402580090D0032B
:103A500000093D0000127A000000004680B582B0E7
:103A600000AF01F015FA01460D4B9B6903F00F0200
:103A700001237B607B6893FAA3F33B603B68B3FA56
:103A800083F322FA03F3074AD35C21FA03F3064ACD
:103A90001360054B1B6818460837BD4680BD00BF44
:103AA0000044025814E100083800002080B582B0BC
:103AB00000AFFFF7D3FF01460B4BDB6903F0700249
:103AC00010237B607B6893FAA3F33B603B68B3FAF7
:103AD00083F322FA03F3054AD35C21FA03F3184671
:103AE0000837BD4680BD00BF0044025814E10008FD
:103AF00080B582B000AFFFF7B1FF01460B4BDB6929
:103B000003F4E0624FF480737B607B6893FAA3F365
:103B10003B603B68B3FA83F322FA03F3044AD35CB5
:103B200021FA03F318460837BD4680BD0044025809
:103B300014E1000880B586B000AF78600023FB7503
:103B40000023BB757B681B6803F00063002B3FD02C
:103B50007B685B6EB3F5801F13D0B3F5801F02D86E
:103B6000002B07D01FE0B3F5001F13D0B3F5401FA3
:103B70001CD018E0B14AB14BDB6A43F40033D36286
:103B800015E07B6804330221184601F0A9F90346C9
:103B9000FB750CE07B6824330221184601F03AFAE9
:103BA0000346FB7503E00123FB7500E000BFFB7DCE
:103BB000002B09D1A149A14B1B6D23F440127B6856
:103BC0005B6E13430B6503E0BA7DFB7D1343BB754E
:103BD0007B681B6803F48073002B3FD07B685B6DB0
:103BE000042B26D801A252F823F000BF013C0008A4
:103BF0000F3C0008213C0008393C0008393C000813
:103C00008E4A8E4BDB6A43F40033D36215E07B6847
:103C100004330021184601F063F90346FB750CE0FC
:103C20007B6824330021184601F0F4F90346FB7544
:103C300003E00123FB7500E000BFFB7D002B09D1F1
:103C40007E497E4B1B6D23F007027B685B6D13433F
:103C50000B6503E0BA7DFB7D1343BB757B681B6876
:103C600003F40073002B40D07B689B6D802B1CD02D
:103C7000802B04D8002B08D0402B0DD01EE0C02B89
:103C80001FD0B3F5807F1ED018E06C4A6B4BDB6A07
:103C900043F40033D36217E07B68043300211846F5
:103CA00001F01EF90346FB750EE07B68243300210A
:103CB000184601F0AFF90346FB7505E00123FB75DB
:103CC00002E000BF00E000BFFB7D002B09D15B4993
:103CD0005A4B1B6D23F4E0727B689B6D13430B659D
:103CE00003E0BA7DFB7D1343BB757B681B6803F45F
:103CF0008063002B46D07B68D3F8A430B3F5800FE7
:103D00001FD0B3F5800F05D8002B0AD0B3F5001FE4
:103D10000ED01FE0B3F5C00F1FD0B3F5000F1ED0BB
:103D200018E0464A454BDB6A43F40033D36217E0A0
:103D30007B6804330021184601F0D2F80346FB7576
:103D40000EE07B6824330021184601F063F9034636
:103D5000FB7505E00123FB7502E000BF00E000BF3A
:103D6000FB7D002B0AD13549344B9B6D23F4600257
:103D70007B68D3F8A43013438B6503E0BA7DFB7DE9
:103D80001343BB757B681B6803F40063002B46D0AC
:103D90007B68D3F8A830B3F1007F1FD0B3F1007F68
:103DA00005D8002B0AD0B3F1807F0ED01FE0B3F10D
:103DB000407F1FD0B3F1806F1ED018E01F4A1F4B09
:103DC000DB6A43F40033D36217E07B6804330021DD
:103DD000184601F085F80346FB750EE07B68243336
:103DE0000021184601F016F90346FB7505E0012392
:103DF000FB7502E000BF00E000BFFB7D002B0AD195
:103E00000E490E4B9B6D23F0E0627B68D3F8A8301F
:103E100013438B6503E0BA7DFB7D1343BB757B6861
:103E20001B6803F00073002B36D07B689B6C102B53
:103E30000BD0102B04D8002B1AD016E000440258E7
:103E4000202B09D0302B15D00FE0AE4AAD4BDB6AEA
:103E500043F40033D3620EE07B680433022118463A
:103E600001F03EF80346FB7505E00123FB7502E017
:103E700000BF00E000BFFB7D002B09D1A149A14B91
:103E8000DB6C23F030027B689B6C1343CB6403E054
:103E9000BA7DFB7D1343BB757B681B6803F48053BD
:103EA000002B44D07B68DB6DB3F5005F1FD0B3F50A
:103EB000005F05D8002B0AD0B3F5805F0ED01FE05D
:103EC000B3F5405F1FD0B3F5804F1ED018E08D4A88
:103ED0008C4BDB6A43F40033D36217E07B68043316
:103EE0000021184600F0FCFF0346FB750EE07B68DE
:103EF00024330021184601F08DF80346FB7505E0D8
:103F00000123FB7502E000BF00E000BFFB7D002B3A
:103F100009D17C497B4B1B6D23F4E0427B68DB6D50
:103F200013430B6503E0BA7DFB7D1343BB757B68D0
:103F30001B6803F40053002B44D07B681B6EB3F561
:103F4000003F1BD0B3F5003F05D8002B22D0B3F5BE
:103F5000803F0AD01BE0B3F5802F1DD0B3F5A02F12
:103F60001CD0B3F5403F1BD011E07B680433012126
:103F7000184600F0B5FF0346FB7512E07B6824335A
:103F80000121184601F046F80346FB7509E00123BC
:103F9000FB7506E000BF04E000BF02E000BF00E0E8
:103FA00000BFFB7D002B09D15649564B1B6D23F4F6
:103FB000E0227B681B6E13430B6503E0BA7DFB7D3B
:103FC0001343BB757B681B6803F48043002B46D00A
:103FD0007B68D3F8AC30B3F1005F1BD0B3F1005F66
:103FE00005D8002B22D0B3F1805F0AD01BE0B3F1DB
:103FF000804F1DD0B3F1A04F1CD0B3F1405F1BD058
:1040000011E07B6804330121184600F069FF034684
:10401000FB7512E07B6824330121184600F0FAFF9B
:104020000346FB7509E00123FB7506E000BF04E0D1
:1040300000BF02E000BF00E000BFFB7D002B0AD103
:104040003049304B9B6D23F0E0427B68D3F8AC30B5
:1040500013438B6503E0BA7DFB7D1343BB757B681F
:104060001B6803F40043002B2FD07B68DB6EB3F199
:10407000805F05D0B3F1005F09D0002B13D00FE0B3
:10408000204A204BDB6A43F40033D3620CE07B68A8
:1040900004330121184600F023FF0346FB7503E0BB
:1040A0000123FB7500E000BFFB7D002B09D1154902
:1040B000144B1B6D23F040527B68DB6E13430B6582
:1040C00003E0BA7DFB7D1343BB757B681B6803F07F
:1040D0008073002B36D07B685B6C032B1DD801A24C
:1040E00052F823F021410008F5400008094100087A
:1040F00021410008034A034BDB6A43F40033D362D7
:104100000FE000BF004402587B68043302211846C8
:1041100000F0E6FE0346FB7503E00123FB7500E0BB
:1041200000BFFB7D002B09D1B049B04BDB6C23F005
:1041300003027B685B6C1343CB6403E0BA7DFB7DB9
:104140001343BB757B681B6803F48003002B00F0EE
:104150008A80A74AA64B1B6843F480731360FCF760
:10416000F5FA386109E0FCF7F1FA02463B69D31A27
:10417000642B02D90323FB7505E09D4B1B6803F4F8
:104180008073002BEFD0FB7D002B68D1974B1A6F0B
:104190007B68D3F8B030534003F44073002B13D046
:1041A000924B1B6F23F44073FB60904A8F4B1B6F45
:1041B00043F4803313678D4A8C4B1B6F23F4803399
:1041C00013678A4AFB6813677B68D3F8B030B3F58E
:1041D000807F15D1FCF7BAFA38610BE0FCF7B6FA2C
:1041E00002463B69D31A41F28832934202D9032333
:1041F000FB7505E07D4B1B6F03F00203002BEDD038
:10420000FB7D002B26D17B68D3F8B03003F44073DC
:10421000B3F5407F0DD17548744B1B6923F47C5274
:104220007B68D3F8B0301909724B0B40134303611C
:1042300005E06E4A6D4B1B6923F47C5313616B4997
:104240006A4B1A6F7B68D3F8B030C3F30B03134388
:104250000B6708E0BA7DFB7D1343BB7503E0BA7DB5
:10426000FB7D1343BB757B681B6803F00103002BC8
:104270007FD07B689B6F282B66D801A252F823F071
:104280004F430008494300084943000849430008D8
:1042900049430008494300084943000849430008CE
:1042A00025430008494300084943000849430008E2
:1042B00049430008494300084943000849430008AE
:1042C00037430008494300084943000849430008B0
:1042D000494300084943000849430008494300088E
:1042E0004F43000849430008494300084943000878
:1042F000494300084943000849430008494300086E
:104300004F43000849430008494300084943000857
:10431000494300084943000849430008494300084D
:104320004F4300087B6804330121184600F0D8FD94
:104330000346FB750CE07B6824330121184600F02E
:1043400069FE0346FB7503E00123FB7500E000BF37
:10435000FB7D002B09D12549244B5B6D23F03802EE
:104360007B689B6F13434B6503E0BA7DFB7D134372
:10437000BB757B681B6803F00203002B40D07B6891
:104380005B6F052B20D801A252F823F0CF43000821
:10439000A5430008B7430008CF430008CF430008F7
:1043A000CF4300087B6804330121184600F098FDD4
:1043B0000346FB750CE07B6824330121184600F0AE
:1043C00029FE0346FB7503E00123FB7500E000BFF7
:1043D000FB7D002B10D10549044B5B6D23F00702D8
:1043E0007B685B6F13434B650AE000BF00440258D3
:1043F00000480258CFFFFF00BA7DFB7D1343BB7519
:104400007B681B6803F00403002B3BD07B68D3F868
:104410009030052B20D801A252F823F05F44000809
:1044200035440008474400085F4400085F44000822
:104430005F4400087B6804330121184600F050FDFA
:104440000346FB750CE07B6824330121184600F01D
:10445000E1FD0346FB7503E00123FB7500E000BFAF
:10446000FB7D002B0AD1B749B64B9B6D23F00702A9
:104470007B68D3F8903013438B6503E0BA7DFB7DF6
:104480001343BB757B681B6803F02003002B46D0E9
:104490007B68D3F88C30B3F1005F1BD0B3F1005FC1
:1044A00005D8002B22D0B3F1805F0AD01BE0B3F116
:1044B000804F1DD0B3F1A04F1CD0B3F1405F1BD093
:1044C00011E07B6804330021184600F009FD034623
:1044D000FB7512E07B6824330221184600F09AFD38
:1044E0000346FB7509E00123FB7506E000BF04E00D
:1044F00000BF02E000BF00E000BFFB7D002B0AD13F
:104500009049904B5B6D23F0E0427B68D3F88C3090
:1045100013434B6503E0BA7DFB7D1343BB757B689A
:104520001B6803F04003002B46D07B68D3F898301B
:10453000B3F5006F1BD0B3F5006F05D8002B22D068
:10454000B3F5806F0AD01BE0B3F5805F1DD0B3F5E3
:10455000A05F1CD0B3F5406F1BD011E07B68043323
:104560000021184600F0BCFC0346FB7512E07B6896
:1045700024330221184600F04DFD0346FB7509E087
:104580000123FB7506E000BF04E000BF02E000BFAE
:1045900000E000BFFB7D002B0AD16A49694B9B6D8F
:1045A00023F4E0527B68D3F8983013438B6503E023
:1045B000BA7DFB7D1343BB757B681B6803F08003EA
:1045C000002B46D07B68D3F89C30B3F5804F1BD0CE
:1045D000B3F5804F05D8002B22D0B3F5005F0AD089
:1045E0001BE0B3F5004F1DD0B3F5204F1CD0B3F541
:1045F000C04F1BD011E07B6804330021184600F047
:104600006FFC0346FB7512E07B68243302211846D9
:1046100000F000FD0346FB7509E00123FB7506E091
:1046200000BF04E000BF02E000BF00E000BFFB7D70
:10463000002B0AD14349434B9B6D23F460427B68B6
:10464000D3F89C3013438B6503E0BA7DFB7D1343A5
:10465000BB757B681B6803F00803002B1BD07B68CD
:10466000D3F88030B3F5805F0BD17B68243302210F
:10467000184600F0CFFC03461A46BB7D1343BB75BA
:1046800009E030492F4B5B6D23F440527B68D3F82F
:10469000803013434B657B681B6803F01003002BCD
:1046A0001BD07B68D3F89430B3F5807F0BD17B6847
:1046B00024330221184600F0ADFC03461A46BB7DA8
:1046C0001343BB7509E01F491E4B9B6D23F44072D9
:1046D0007B68D3F8943013438B657B681B6803F4C5
:1046E0000023002B34D07B68D3F8A030B3F5803F93
:1046F0000DD0B3F5003F16D0002B11D17B680433E9
:104700000021184600F0ECFB0346FB750CE07B68CB
:1047100024330221184600F07DFC0346FB7503E0BC
:104720000123FB7500E000BFFB7D002B0CD1054988
:10473000044B9B6D23F440327B68D3F8A0301343C5
:104740008B6505E000440258BA7DFB7D1343BB75C1
:104750007B681B6803F48023002B31D07B68D3F87F
:104760008430B3F5001F0CD0B3F5401F15D0B3F55E
:10477000801F0FD17C4A7C4BDB6A43F40033D36249
:104780000CE07B6824330121184600F043FC03460B
:10479000FB7503E00123FB7500E000BFFB7D002BF0
:1047A0000AD17149704B5B6D23F440127B68D3F8DA
:1047B000843013434B6503E0BA7DFB7D1343BB7527
:1047C0007B681B6803F48033002B2BD07B68DB6C89
:1047D000002B03D0B3F5803F07D00FE0624A624B55
:1047E000DB6A43F40033D3620BE07B6804330221BD
:1047F000184600F075FB0346FB7502E00123FB75CC
:1048000000BFFB7D002B09D15749574BDB6C23F4CC
:1048100080327B68DB6C1343CB6403E0BA7DFB7DA5
:104820001343BB757B681B6803F00053002B0AD051
:104830007B6824330221184600F0ECFB03461A463D
:10484000BB7D1343BB757B681B6803F40033002BEF
:1048500031D07B68DB6FB3F5807F0CD0B3F5807F00
:1048600002D8002B11D00DE0B3F5007F0FD0B3F5C7
:10487000407F0ED006E03C4A3B4BDB6A43F40033FA
:10488000D36207E00123FB7504E000BF02E000BF34
:1048900000E000BFFB7D002B09D13349324B5B6D3B
:1048A00023F440727B68DB6F13434B6503E0BA7DF2
:1048B000FB7D1343BB757B681B6803F48013002BDF
:1048C00008D02949284B1B6D23F000427B681B6FE1
:1048D00013430B657B681B6803F08053002B09D0E2
:1048E0002149214B1B6923F480427B68D3F8B43003
:1048F00013430B617B681B6803F40013002B08D083
:104900001949194B1B6D23F080727B689B6E134312
:104910000B657B681B6803F08043002B0DD0124AA7
:10492000114B1B6923F4004313610F490E4B1A69A5
:104930007B68D3F8B83013430B617B681B68002B8E
:1049400008DA0949084BDB6C23F040527B681B6D89
:104950001343CB64BB7D002B01D1002300E0012376
:1049600018461837BD4680BD0044025880B582B055
:1049700000AFFFF773F801460B4B1B6A03F07002A0
:1049800010237B607B6893FAA3F33B603B68B3FA28
:1049900083F322FA03F3054AD35C21FA03F31846A2
:1049A0000837BD4680BD00BF0044025814E100082E
:1049B00080B489B000AF78600023BB6101237B61C4
:1049C00000233B610023FB604FF00003BB604FF00E
:1049D0000003FB618D4B9B6A03F00303BB618B4BB0
:1049E0009B6A1B0B03F03F037B61884BDB6A03F080
:1049F00010033B61854BDB6BDB08C3F30C033A69A7
:104A000002FB03F307EE903AF8EE677AC7ED027AFD
:104A1000BB69012B55D0012B02D3022B72D092E03F
:104A20007A4B1B6803F02003002B29D0774B1B68BF
:104A3000DB0803F00303764A22FA03F3FB60FA680B
:104A40007B69B2FBF3F307EE903AB8EE677A6F4BEF
:104A50009B6BC3F3080307EE903AF8EE676A97ED95
:104A6000026ADFED6C5AC6EE257A76EEA77AF7EE8B
:104A7000006A77EEA67A67EE277AC7ED077A83E0B9
:104A8000634A7B69B2FBF3F307EE903AB8EE677ABC
:104A90005E4B9B6BC3F3080307EE903AF8EE676A30
:104AA00097ED026ADFED5B5AC6EE257A76EEA77ABD
:104AB000F7EE006A77EEA67A67EE277AC7ED077AF7
:104AC00062E0554A7B69B2FBF3F307EE903AB8EE29
:104AD000677A4E4B9B6BC3F3080307EE903AF8EEF0
:104AE000676A97ED026ADFED4B5AC6EE257A76EEDD
:104AF000A77AF7EE006A77EEA67A67EE277AC7ED17
:104B0000077A41E0454A7B69B2FBF3F307EE903A3E
:104B1000B8EE677A3D4B9B6BC3F3080307EE903A00
:104B2000F8EE676A97ED026ADFED3A5AC6EE257A2B
:104B300076EEA77AF7EE006A77EEA67A67EE277A26
:104B4000C7ED077A20E0344A7B69B2FBF3F307EE46
:104B5000903AB8EE677A2D4B9B6BC3F3080307EED0
:104B6000903AF8EE676A97ED026ADFED2A5AC6EED0
:104B7000257A76EEA77AF7EE006A77EEA67A67EEE8
:104B8000277AC7ED077A00BF204B9B6B5B0A03F0C7
:104B90007F03013307EE903AB8EE677AD7ED076AE4
:104BA000C6EE877AFCEEE77A17EE902A7B681A60E9
:104BB000164B9B6B1B0C03F07F03013307EE903AFF
:104BC000B8EE677AD7ED076AC6EE877AFCEEE77A29
:104BD00017EE902A7B685A600C4B9B6B1B0E03F000
:104BE0007F03013307EE903AB8EE677AD7ED076A94
:104BF000C6EE877AFCEEE77A17EE902A7B689A6019
:104C000000BF2437BD465DF8047B7047004402585E
:104C10000090D0030000004600093D0000127A0019
:104C200080B489B000AF78600023BB6101237B6151
:104C300000233B610023FB604FF00003BB604FF09B
:104C40000003FB618D4B9B6A03F00303BB618B4B3D
:104C50009B6A1B0D03F03F037B61884BDB6A03F407
:104C600080733B61854B5B6CDB08C3F30C033A69D3
:104C700002FB03F307EE903AF8EE677AC7ED027A8B
:104C8000BB69012B55D0012B02D3022B72D092E0CD
:104C90007A4B1B6803F02003002B29D0774B1B684D
:104CA000DB0803F00303764A22FA03F3FB60FA6899
:104CB0007B69B2FBF3F307EE903AB8EE677A6F4B7D
:104CC0001B6CC3F3080307EE903AF8EE676A97EDA2
:104CD000026ADFED6C5AC6EE257A76EEA77AF7EE19
:104CE000006A77EEA67A67EE277AC7ED077A83E047
:104CF000634A7B69B2FBF3F307EE903AB8EE677A4A
:104D00005E4B1B6CC3F3080307EE903AF8EE676A3C
:104D100097ED026ADFED5B5AC6EE257A76EEA77A4A
:104D2000F7EE006A77EEA67A67EE277AC7ED077A84
:104D300062E0554A7B69B2FBF3F307EE903AB8EEB6
:104D4000677A4E4B1B6CC3F3080307EE903AF8EEFC
:104D5000676A97ED026ADFED4B5AC6EE257A76EE6A
:104D6000A77AF7EE006A77EEA67A67EE277AC7EDA4
:104D7000077A41E0454A7B69B2FBF3F307EE903ACC
:104D8000B8EE677A3D4B1B6CC3F3080307EE903A0D
:104D9000F8EE676A97ED026ADFED3A5AC6EE257AB9
:104DA00076EEA77AF7EE006A77EEA67A67EE277AB4
:104DB000C7ED077A20E0344A7B69B2FBF3F307EED4
:104DC000903AB8EE677A2D4B1B6CC3F3080307EEDD
:104DD000903AF8EE676A97ED026ADFED2A5AC6EE5E
:104DE000257A76EEA77AF7EE006A77EEA67A67EE76
:104DF000277AC7ED077A00BF204B1B6C5B0A03F0D4
:104E00007F03013307EE903AB8EE677AD7ED076A71
:104E1000C6EE877AFCEEE77A17EE902A7B681A6076
:104E2000164B1B6C1B0C03F07F03013307EE903A0B
:104E3000B8EE677AD7ED076AC6EE877AFCEEE77AB6
:104E400017EE902A7B685A600C4B1B6C1B0E03F00C
:104E50007F03013307EE903AB8EE677AD7ED076A21
:104E6000C6EE877AFCEEE77A17EE902A7B689A60A6
:104E700000BF2437BD465DF8047B704700440258EC
:104E80000090D0030000004600093D0000127A00A7
:104E900080B582B000AFFEF771FC01460D4B9B69F7
:104EA00003F470624FF480737B607B6893FAA3F322
:104EB0003B603B68B3FA83F322FA03F3064AD35C00
:104EC00021FA03F3054A1360044B1B6818460837A0
:104ED000BD4680BD0044025814E1000834000020A3
:104EE00080B584B000AF786039600023FB73484B15
:104EF0009B6A03F00303032B01D1012383E0444A9F
:104F0000434B1B6823F080631360FBF71FFCB86002
:104F100008E0FBF71BFC0246BB68D31A022B01D941
:104F2000032370E03A4B1B6803F00063002BF0D1C1
:104F30003749374B9B6A23F47C327B681B681B0321
:104F400013438B6232497B685B68013BC3F3080201
:104F50007B689B68013B5B029BB21A437B68DB6802
:104F6000013B1B0403F4FE031A437B681B69013BEE
:104F70001B0603F0FE4313438B632549244BDB6A76
:104F800023F0C0027B685B691343CB622049204B4E
:104F9000DB6A23F020027B689B691343CB623B688A
:104FA000002B06D11A4A1A4BDB6A43F40023D36262
:104FB0000FE03B68012B06D1154A154BDB6A43F421
:104FC0008013D36205E0124A114BDB6A43F40013ED
:104FD000D3620F4A0E4B1B6843F080631360FBF7EC
:104FE000B5FBB86008E0FBF7B1FB0246BB68D31A1B
:104FF000022B01D9032306E0054B1B6803F0006375
:10500000002BF0D0FB7B18461037BD4680BD00BF9B
:105010000044025880B584B000AF78603960002346
:10502000FB73484B9B6A03F00303032B01D101235D
:1050300083E0444A434B1B6823F080531360FBF723
:1050400085FBB86008E0FBF781FB0246BB68D31A1A
:10505000022B01D9032370E03A4B1B6803F0005385
:10506000002BF0D13749374B9B6A23F07C727B6869
:105070001B681B0513438B6232497B685B68013BED
:10508000C3F308027B689B68013B5B029BB21A4337
:105090007B68DB68013B1B0403F4FE031A437B6857
:1050A0001B69013B1B0603F0FE4313430B642549B8
:1050B000244BDB6A23F440627B685B691343CB6259
:1050C0002049204BDB6A23F400727B689B69134301
:1050D000CB623B68002B06D11A4A1A4BDB6A43F4B9
:1050E0008003D3620FE03B68012B06D1154A154BB4
:1050F000DB6A43F40003D36205E0124A114BDB6A1A
:1051000043F08073D3620F4A0E4B1B6843F0805309
:105110001360FBF71BFBB86008E0FBF717FB0246C8
:10512000BB68D31A022B01D9032306E0054B1B6889
:1051300003F00053002BF0D0FB7B18461037BD4620
:1051400080BD00BF0044025880B582B000AF7860D7
:105150007B68002B01D101231DE07B6893F83D3073
:10516000DBB2002B06D17B68002283F83C207868F4
:1051700005F012F87B68022283F83D207B681A68EC
:105180007B6804331946104600F00AFD7B68012253
:1051900083F83D20002318460837BD4680BD80B403
:1051A00083B000AF78607B681B687A681268D26849
:1051B00042F00102DA607B681B687A681268128824
:1051C00092B242F0010292B21A80002318460C37C4
:1051D000BD465DF8047B704780B582B000AF786053
:1051E0007B68002B01D101231DE07B6893F83D30E3
:1051F000DBB2002B06D17B68002283F83C20786864
:1052000000F015F87B68022283F83D207B681A685D
:105210007B6804331946104600F0C2FC7B6801220B
:1052200083F83D20002318460837BD4680BD80B472
:1052300083B000AF786000BF0C37BD465DF8047BDB
:10524000704780B582B000AF78607B68002B01D1D9
:1052500001231DE07B6893F83D30DBB2002B06D1C3
:105260007B68002283F83C20786800F015F87B68A2
:10527000022283F83D207B681A687B680433194654
:10528000104600F08DFC7B68012283F83D2000234E
:1052900018460837BD4680BD80B483B000AF786043
:1052A00000BF0C37BD465DF8047B704780B582B007
:1052B00000AF786039607B681B6801223968184646
:1052C00001F0ACF87B681B68194A934213D07B68E5
:1052D0001B68184A93420ED07B681B68164A93429B
:1052E00009D07B681B68154A934204D07B681B6811
:1052F000134A934201D1012300E00023002B07D081
:105300007B681B687A681268526C42F400425A64E7
:105310007B681B687A681268128892B242F00102B8
:1053200092B21A80002318460837BD4680BD00BFE0
:1053300000000140000401400040014000440140E1
:105340000048014080B582B000AF786039607B686A
:105350001B6800223968184601F060F87B681B68FA
:105360002B4A934213D07B681B682A4A93420ED083
:105370007B681B68284A934209D07B681B68274AD0
:10538000934204D07B681B68254A934201D10123D4
:1053900000E00023002B17D07B681B681A6A41F2DB
:1053A00011131340002B0FD17B681B681A6A40F25F
:1053B00044431340002B07D17B681B687A6812684E
:1053C000526C22F400425A647B681B681A6A41F2EC
:1053D00011131340002B11D17B681B681A6A40F22D
:1053E00044431340002B09D17B681B687A6812681C
:1053F000128892B222F0010292B21A807B680122D6
:1054000083F83D20002318460837BD4680BD00BF05
:105410000000014000040140004001400044014000
:105420000048014080B582B000AF78607B681B689F
:105430001B6903F00203022B22D17B681B68DB6827
:1054400003F00203022B1BD17B681B686FF0020282
:105450001A617B6801221A777B681B689B6903F0DD
:105460000303002B03D0786800F07CFB05E078682C
:1054700000F06EFB786800F07FFB7B6800221A77F3
:105480007B681B681B6903F00403042B22D17B6833
:105490001B68DB6803F00403042B1BD17B681B68CB
:1054A0006FF004021A617B6802221A777B681B681E
:1054B0009B6903F44073002B03D0786800F052FB23
:1054C00005E0786800F044FB786800F055FB7B68E5
:1054D00000221A777B681B681B6903F00803082BFE
:1054E00022D17B681B68DB6803F00803082B1BD103
:1054F0007B681B686FF008021A617B6804221A77C8
:105500007B681B68DB6903F00303002B03D078681A
:1055100000F028FB05E0786800F01AFB786800F0DE
:105520002BFB7B6800221A777B681B681B6903F0E2
:105530001003102B22D17B681B68DB6803F010037B
:10554000102B1BD17B681B686FF010021A617B68FF
:1055500008221A777B681B68DB6903F44073002B11
:1055600003D0786800F0FEFA05E0786800F0F0FA01
:10557000786800F001FB7B6800221A777B681B6863
:105580001B6903F00103012B0ED17B681B68DB68EC
:1055900003F00103012B07D17B681B686FF0010248
:1055A0001A61786803F0B8F87B681B681B6903F020
:1055B0008003802B0ED17B681B68DB6803F08003BF
:1055C000802B07D17B681B686FF080021A617868B6
:1055D00001F024F87B681B681B6903F48073B3F542
:1055E000807F0ED17B681B68DB6803F08003802B13
:1055F00007D17B681B686FF080021A61786801F040
:105600000DF87B681B681B6903F04003402B0ED12B
:105610007B681B68DB6803F04003402B07D17B6885
:105620001B686FF040021A61786800F0AFFA7B687F
:105630001B681B6903F02003202B0ED17B681B68BD
:10564000DB6803F02003202B07D17B681B686FF019
:1056500020021A61786800F0D7FF00BF0837BD4606
:1056600080BD000080B584B000AFF860B9607A609A
:10567000FB6893F83C30012B01D102236CE0FB68FE
:10568000012283F83C20FB68022283F83D207B68DE
:10569000142B57D801A252F823F000BFF15600088E
:1056A000455700084557000845570008FF560008B1
:1056B0004557000845570008455700080D57000892
:1056C0004557000845570008455700081B57000874
:1056D0004557000845570008455700082957000856
:1056E0004557000845570008455700083757000838
:1056F000FB681B68B968184600F0F2FA23E0FB6803
:105700001B68B968184600F081FB1CE0FB681B6849
:10571000B968184600F00AFC15E0FB681B68B96818
:10572000184600F08FFC0EE0FB681B68B96818464D
:1057300000F0F6FC07E0FB681B68B968184600F04B
:1057400057FD00E000BFFB68012283F83D20FB68A5
:10575000002283F83C20002318461037BD4680BD48
:1057600080B584B000AFF860B9607A60FB6893F8E8
:105770003C30012B01D1022305E1FB68012283F8B3
:105780003C20FB68022283F83D207B68142B00F24A
:10579000F08001A252F823F0ED5700087359000879
:1057A00073590008735900082D58000873590008F0
:1057B00073590008735900086F580008735900089E
:1057C0007359000873590008AF580008735900084E
:1057D0007359000873590008F158000873590008FC
:1057E000735900087359000831590008FB681B6899
:1057F000B968184600F074FAFB681B68FA6812680A
:10580000926942F008029A61FB681B68FA681268A4
:10581000926922F004029A61FB681B68FA681268B8
:105820009169BA6812690A439A61A3E0FB681B6830
:10583000B968184600F0EAFAFB681B68FA68126853
:10584000926942F400629A61FB681B68FA68126808
:10585000926922F480629A61FB681B68FA68126898
:105860009169BA68126912020A439A6182E0FB6880
:105870001B68B968184600F059FBFB681B68FA689A
:105880001268D26942F00802DA61FB681B68FA68A4
:105890001268D26922F00402DA61FB681B68FA68B8
:1058A0001268D169BA6812690A43DA6162E0FB687A
:1058B0001B68B968184600F0C5FBFB681B68FA68EE
:1058C0001268D26942F40062DA61FB681B68FA6808
:1058D0001268D26922F48062DA61FB681B68FA6898
:1058E0001268D169BA68126912020A43DA6141E0AA
:1058F000FB681B68B968184600F012FCFB681B685F
:10590000FA681268526D42F008025A65FB681B681B
:10591000FA681268526D22F004025A65FB681B682F
:10592000FA681268516DBA6812690A435A6521E033
:10593000FB681B68B968184600F05AFCFB681B68D6
:10594000FA681268526D42F400625A65FB681B687F
:10595000FA681268526D22F480625A65FB681B680F
:10596000FA681268516DBA68126912020A435A65E0
:1059700000E000BFFB68012283F83D20FB680022A5
:1059800083F83C20002318461037BD4680BD00BF79
:1059900080B584B000AF786039600023FB607B681D
:1059A00093F83C30012B01D10223C8E07B6801222F
:1059B00083F83C207B68022283F83D207B681B68CB
:1059C0009B68FB60FA68604B1340FB60FB6823F444
:1059D0007F43FB607B681B68FA689A603B681B68C2
:1059E000402B77D0402B0ED8102B00F08A80102B44
:1059F00002D8002B7ED099E0202B00F08980302B3C
:105A000000F08D8092E0702B16D0702B04D8502BB4
:105A100040D0602B4ED089E0B3F5805F03D0B3F562
:105A2000005F24D082E07B681A687B681B689968F5
:105A3000464B0B40936079E07B6818683B68996837
:105A40003B685A683B68DB6800F0C6FC7B681B68F3
:105A50009B68FB60FA683C4B1340FB60FB6843F0BB
:105A60007703FB607B681B68FA689A605EE07B687E
:105A700018683B6899683B685A683B68DB6800F0C7
:105A8000ABFC7B681B687A681268926842F48042BB
:105A90009A604BE07B6818683B6859683B68DB6834
:105AA0001A4600F00FFC7B681B685021184600F076
:105AB00071FC3BE07B6818683B6859683B68DB68B1
:105AC0001A4600F032FC7B681B686021184600F023
:105AD00061FC2BE07B6818683B6859683B68DB68B1
